:1000000087C00000BBC00000B9C00000B7C000003E
:10001000B5C00000B3C00000B1C00000AFC0000018
:10002000ADC00000ABC00000A9C00000CAC4000001
:1000300087C40000A3C00000A1C000009FC0000052
:100040009DC000009BC0000099C0000097C0000048
:1000500095C0000093C0000091C000006CC5000076
:100060008DC000008BC0000089C0000087C0000068
:1000700085C0000009023E00020100C032090400F0
:1000800000010202010005240001100424020605FB
:1000900024060001070582030800FF09040100028D
:1000A0000A00000007050402400001070583024022
:1000B0000001120110010200000809127030010055
:1000C0000102DC0110034D00650067006100430080
:1000D0004D004400000034034D00650067006100DE
:1000E00043004D004400200028007700770077008F
:1000F0002E006D0065006700610063006D00640004
:100100002E0063006F006D00290000000403090445
:1001100011241FBECFEFD4E0DEBFCDBF04B603FE77
:1001200018C080912F0290913002A0913102B091BD
:1001300032028A3C9C4AA244BC4D59F410922F02D0
:10014000109230021092310210923202E0E0F0E799
:10015000099511E0A0E0B1E0ECE0FFE002C00590FD
:100160000D92A631B107D9F722E0A6E1B1E001C0B6
:100170001D92AF32B207E1F717D5C6C641CF209125
:100180002D0230912E026217730708F49B0150E094
:100190002115310541F4511106C08091E80082FF1C
:1001A0002EC080E008954091E80043FD30C04091AA
:1001B000E80042FDF2CF4EB3442359F14EB345302F
:1001C00021F14091E80040FFE3CF4091F200FC01B3
:1001D000CF012115310511F0483050F051E0483081
:1001E00009F050E04091E8004E774093E800D0CF0E
:1001F00081918093F100215031094F5FE9CF8EB397
:10020000882339F08EB3853041F683E0089581E08C
:10021000089582E0089585E69091EC0090FF06C075
:100220009091E80090FF06C080E008959091E8006A
:1002300092FDFACF9EB39923A1F09EB3953099F029
:100240009091EB0095FD11C09091E10092FFE4CFF9
:100250009091E1009B7F9093E1008150E9F684E06A
:10026000089582E0089583E0089581E008958091E3
:10027000270287FF11C08091E80082FF06C08091AD
:10028000E8008B778093E80003C08EB38111F3CF31
:1002900008958EB38823E1F38091E80080FFF9CFC1
:1002A0008091E8008E77EECF8093E900EBEEF0E0EE
:1002B000808181608083EDEEF0E010826093EC003D
:1002C00040838091EE00881F8827881F08950F9330
:1002D000E8E0F0E090E0E217F30760F0026092954A
:1002E000907F092B6295660F660F607C642B402F10
:1002F0000F91DACF9F5FEE0FFF1FEDCF1092E2005C
:100300001092E1001EBA109226021092250210925D
:10031000240284E089BD89B5826089BD09B400FEEC
:10032000FDCF8091D800982F9F779093D800806858
:100330008093D800809163008E7F809363008091CA
:10034000D8008F7D8093D8008091E0008E7F8093CD
:10035000E0008091E1008E7F8093E1008091E200D7
:1003600081608093E2008091E100877F8093E100CB
:100370008091E20088608093E2000895CF92DF923E
:10038000EF92FF920F931F93CF93DF93CDB7DEB71A
:10039000AA970FB6F894DEBF0FBECDBFE7E2F2E03A
:1003A0008FE292E02091F10021938E179F07D1F701
:1003B00010912702809128028A3008F0EDC1E82FC1
:1003C000F0E0EC51FE4F9AC5EE011502CC03150288
:1003D000CC0372028E02CC034D035A03103881F015
:1003E000123809F0D9C180912B0287708093E900FF
:1003F0008091EB0085FB882780F91092E90006C008
:100400008091240290912502911182609091E800E0
:10041000977F9093E8008093F1001092F100809113
:10042000E8008E778093E80087C2912F9D7F09F0C6
:10043000B3C11123F9F0123061F18091E80083FF1C
:100440000AC08091EB0080628093EB008091E8000D
:10045000877F8093E800AA960FB6F894DEBF0FBEA0
:10046000CDBFDF91CF911F910F91FF90EF90DF9063
:10047000CF900895909129029130F9F6833009F0D8
:1004800090E0909325021092E9008091E800877F28
:10049000C9CF909129029111F6CF90912B029770BC
:1004A00061F29093E9002091EB0020FFC6CF8330EA
:1004B00031F48091EB0080628093EB00E4CF809177
:1004C000EB0080618093EB0021E030E001C0220F5F
:1004D0009A95EAF72093EA001092EA008091EB00E7
:1004E0008860EACF111158C1109129028091E8006B
:1004F000877F8093E800BBDE8091E80080FF0AC020
:10050000812F8F7792E009F093E09EBB8068809303
:10051000E30093CF8EB38111EFCF8FCF90E8910F8F
:10052000923008F039C18091290290912A028C3DC5
:1005300023E0920781F583E08A838AE289833FB7CB
:10054000F894DE01139690E02EE041E2E22FF0E015
:1005500040935700E49190FF03C0E295EF702F5F46
:10056000EF7080E38E0FE95C8A3308F4E82F0E2EDB
:10057000000CFF0BED93FD939F5F943139F73FBF64
:100580008091E800877F8093E8006AE270E0CE0106
:100590000196F5DD31C0292F33272230310561F076
:1005A0002330310579F12130310509F046CFE2E100
:1005B000F0E022EB30E004C0EEE3F0E024E730E0CE
:1005C0008091E800877F8093E80080912D029091D0
:1005D0002E02E817F90708F4CF0150E0009791F5D3
:1005E000511130C08091E80082FD06C08EB388238F
:1005F00019F08EB38530B1F78091E8008B77809346
:10060000E8001BCF992781309105A9F050F002979F
:1006100009F013CFE4ECF0E0E491F0E024EC30E0FA
:1006200006C0ECE0F1E0E491F0E02CE031E030973E
:1006300009F403CFC5CFE6EDF0E0E491F0E026ED5C
:1006400030E0F5CF4091E80043FDD6CF4091E8007F
:1006500042FDC8CF4EB3442379F24EB3453061F228
:100660004091E80040FFBACF4091F200F9019F01AC
:10067000009711F0483050F051E0483009F050E058
:100680004091E8004E774093E800A8CF2491209352
:10069000F10001974F5F3196EACF103809F07CC026
:1006A0008091E800877F8093E80080912602809304
:1006B000F100B5CE111170C000912902023008F08E
:1006C000BCCE8091E800877F8093E80000932602EB
:1006D000CEDD83E0011184E08EBBEDE0F1E089E046
:1006E000DF011D928A95E9F78091040190E0811164
:1006F00094E060910201709103018091010140E05A
:1007000028E030E02617370708F43AC04295407FCA
:100710009260492B61E8C8DD882309F48ECE809170
:10072000080140E0811144E06091060170910701E9
:100730008091050190E028E030E02617370720F18E
:1007400042609295907F492B60E8AEDD882309F4E2
:1007500074CE80910C0140E0811144E060910A0167
:1007600070910B018091090128E030E026173707CE
:1007700078F042601295107F412B61EC95DD5DCEE3
:100780004F5F220F331FBECF9F5F220F331FD5CF86
:100790001F5F220F331FEACF9091E80093FF4DCEE9
:1007A0009091000120912B0230912C029217130698
:1007B00009F043CE813209F47CC008F071C0803268
:1007C00009F03BCE113209F038CE8091E800877FE6
:1007D0008093E800EFE0F1E087E090E0009709F017
:1007E00075C08091E80080FD06C08EB3882319F0A3
:1007F0008EB38530B1F78091140110E3813021F080
:1008000010E2823009F010E080911301823009F487
:10081000186080911501873009F47BC0883009F495
:100820007AC0863009F412601092C9001092C80094
:100830001092CA00C0900F01D0901001E0901101F9
:10084000F090120120E130E0C114B1EEDB06E104CA
:10085000F10479F0C701B60196958795779567956C
:1008600060587B47814E9F4FA701960125D32150A9
:1008700031093093CD002093CC001093CA0082E060
:10088000C11421EED206E104F10409F480E0809362
:10089000C80088E98093C9008091E8008E77AFCEC8
:1008A0008232D9F1833209F0C8CD113209F0C5CDB9
:1008B000ECCD113A09F0C1CD8091E800877F80939B
:1008C000E80067E070E08FE091E063CE2091E800FF
:1008D00023FD91CF2EB3222309F48DCF2EB32530E3
:1008E00009F489CF2091E80022FF78CF2091F2000F
:1008F000222349F09F012F5F3F4F4091F100408339
:100900000197F90199F72091E8002B772093E800EF
:1009100065CF146089CF166087CF113209F08DCD75
:100920008091E800877F8093E8008091290280937E
:100930000D0180FF03C05F989ADC7FCD5F9AFCCFEA
:100940001F920F920FB60F921124FF920F931F93D5
:100950002F933F934F935F936F937F938F939F93C7
:10096000AF93BF93CF93DF93EF93FF93C9EED0E0A4
:1009700088818770F82E188200EF10E0F8018081DE
:10098000877F80837894FADCF8941882F80180815C
:1009900088608083F882FF91EF91DF91CF91BF91C2
:1009A000AF919F918F917F916F915F914F913F9107
:1009B0002F911F910F91FF900F900FBE0F901F90DE
:1009C00018951F920F920FB60F9211240F932F9329
:1009D0003F934F935F936F937F938F939F93AF93C7
:1009E000BF93EF93FF938091E10080FF1AC0809145
:1009F000E20080FF16C08091E1008E7F8093E100CD
:100A00008091E2008E7F8093E2008091E20080611D
:100A10008093E2008091D80080628093D80019BC56
:100A20001EBA8091E10084FF26C08091E20084FF1D
:100A300022C084E089BD89B5826089BD09B400FE09
:100A4000FDCF8091D8008F7D8093D8008091E10008
:100A50008F7E8093E1008091E2008F7E8093E200A0
:100A60008091E20081608093E200809126028111F2
:100A700060C081E08EBB8091E10083FF3BC080912C
:100A8000E20083FF37C08091E100877F8093E1001F
:100A900082E08EBB109226028091E1008E7F8093CF
:100AA000E1008091E2008E7F8093E2008091E2007D
:100AB00080618093E2001092F40080E08093E9006E
:100AC0001092F0001092E8001092ED009091EB006F
:100AD0009E7F9093EB008F5F853081F700E028E0E8
:100AE00030E040E060E080E0F2DB8091F000886080
:100AF0008093F0008091E10082FF09C08091E200C4
:100B000082FF05C08091E1008B7F8093E100FF911F
:100B1000EF91BF91AF919F918F917F916F915F9175
:100B20004F913F912F910F910F900FBE0F901F90FB
:100B3000189584E09FCF1F920F920FB60F92112449
:100B40002F938F939F93EF93FF938091CE009EB34B
:100B50009430D9F4E0911F02F09120028083E0915B
:100B60001F02F0912002CF01019622E08F319207FF
:100B7000B1F09093200280931F029FB7F894809168
:100B800023028F5F809323029FBFFF91EF919F917C
:100B90008F912F910F900FBE0F901F9018958FE996
:100BA00091E092838183E9CF84B7877F84BF0FB6BA
:100BB000F894A895809160008861809360001092FD
:100BC00060000FBE87E690E09093CD008093CC004C
:100BD00086E08093CA001092C80088E18093C90023
:100BE000539A5A9A8AB180638AB98BB180638BB960
:100BF00085DB81E08093190184E085BD17B83F9AB9
:100C000084E388B95F9A579A2FB7F8948AE191E004
:100C100090939B0180939A0190939D0180939C01F6
:100C20002FBF2FB7F8948FE991E090932002809323
:100C30001F0290932202809321022FBF78940AE131
:100C400011E07C01329939C059DB8091E00081606C
:100C50008093E0008091D8008F778093D800109225
:100C6000E2001092E10019BC8091630081608093E2
:100C7000630010921901F89480E0EFEFF9EF3197DB
:100C8000F1F700C000008F5F8038B9F78AEC9CEA6A
:100C9000A2E4BCED80932F0290933002A093310226
:100CA000B093320288E19CE00FB6F894A895809347
:100CB00060000FBE90936000FFCF9FB7F8948091C3
:100CC0009E019FBF803809F449C08EB3843009F07B
:100CD00045C080910F0190911001A0911101B09138
:100CE0001201892B8A2B8B2BC9F1809105018093EE
:100CF000E9008091E80082FF31C08091F2008823F2
:100D000009F469C08091F10090E02091F200211176
:100D100005C02091E8002B772093E8008F3F9807CB
:100D2000E9F0E0919A01F0919B01808380919A0112
:100D300090919B01019690939B0180939A018A590F
:100D4000914021F410939B0100939A019FB7F8946E
:100D500080919E018F5F80939E019FBF8FB7F89413
:100D6000C09123028FBFA89903C0C13608F444C0C4
:100D7000A89AC15008F440C0E0912102F0912202EB
:100D8000D19182E0EF31F80749F1F0932202E0932C
:100D900021029FB7F894809123028150809323020F
:100DA0009FBF8EB3843029F780910F01909110017D
:100DB000A0911101B0911201892B8A2B8B2BC9F2C2
:100DC000809101018093E9008091E80085FF0BC0CC
:100DD000D093F100CECF8FEF9FEF97CFF09222020A
:100DE000E0922102D6CF8091E8008E778093E800D0
:100DF00012DA882369F3BDCF9FB7F89480919E01E2
:100E00009FBF8823F1F0E0919C01F0919D019191A9
:100E1000F0939D01E0939C01EA59F14021F4109375
:100E20009D0100939C012FB7F89480919E01815001
:100E300080939E012FBF8091C80085FFFCCF9093C7
:100E4000CE008EB3843041F580910F019091100156
:100E5000A0911101B0911201892B8A2B8B2BE1F00B
:100E60008EB38430C9F4809101018093E9008091B0
:100E7000F200882389F09091E8008091E8008E7755
:100E80008093E80095FD08C0C6D9811105C0809106
:100E9000E8008E778093E8008EB3882309F4D2CEE1
:100EA000C091E900C7701092E9008091E80083FDCD
:100EB00065DAC093E900C6CEA1E21A2EAA1BBB1BBD
:100EC000FD010DC0AA1FBB1FEE1FFF1FA217B30716
:100ED000E407F50720F0A21BB30BE40BF50B661F2C
:100EE000771F881F991F1A9469F7609570958095F0
:100EF00090959B01AC01BD01CF010895EE0FFF1F3E
:0C0F00000590F491E02D0994F894FFCFC7
:100F0C000003400000044000000208000000000044
:060F1C00000000000000CF
:1070000039C0000052C0000050C000004EC0000057
:107010004CC000004AC0000048C0000046C000004C
:1070200044C0000042C0000040C000009AC40000FC
:107030003CC000003AC0000038C0000036C000006C
:1070400034C0000032C0000030C000002EC000007C
:107050002CC000002AC0000028C0000026C000008C
:1070600024C0000022C0000020C000001EC000009C
:107070001CC0000011241FBECFEFD4E0DEBFCDBF87
:1070800011E0A0E0B1E0E0E4FCE702C005900D9261
:10709000A435B107D9F721E0A4E5B1E001C01D9204
:1070A000A337B207E1F726D1C9C5AACF815080F036
:1070B0009091F20091110DC09091E8009B7F909308
:1070C000E8009091E80092FDF1CF9EB39111F9CFC5
:1070D00008959091F100EACFEDE5F1E0358124814A
:1070E000938182819093560180935701C9019093B7
:1070F0005401809355010895CF93DF9300D000D0C1
:1071000000D0CDB7DEB780915D01843009F45CC05A
:1071100068F48130E9F08330A1F126960FB6F89437
:10712000DEBF0FBECDBFDF91CF910895853009F44A
:1071300098C0863091F780915E01833071F780911D
:107140005F018111EACF8091600180935801E5CF02
:1071500080915E01823008F7BFDF80915E0181116E
:107160000CC0809156019091570123E0FC012093BF
:107170005700E89507B600FCFDCF85E0809300013D
:10718000CCCF80915E01982F9D7F19F4A5DF89E017
:10719000F5CF813009F0C1CFF0E0E0E084918F3F7E
:1071A00069F010925801F0935701E09356018AE07C
:1071B0008093000185E080935B01AFCF3196E115AC
:1071C00020E7F20759F7A9CF80915E01833039F5A6
:1071D00081E080935C0180915F0120916301309197
:1071E0006401232B61F0813009F097CF9091620107
:1071F000809161019093590180935A018ECF811142
:107200000BC088E19CE00FB6F894A89580936000CD
:107210000FBE9093600081CF109201017ECF81114B
:107220007CCF80915F018F3F09F077CFF0E0E0E005
:1072300083E095E080935700E89507B600FCFDCF0A
:1072400090935700E89507B600FCFDCFE058FF4F3C
:10725000E11520E7F20771F781E180935700E89587
:107260005CCF80914D0190914E01A0914F018C8394
:107270009D83AE838091500190915101A091520164
:1072800089839A83AB83E0915F0180915E018111D4
:1072900007C0EC0FFD2FF11D8481809368013DCF65
:1072A000813009F03ACF81ED9FEF8C0F9D1F8E0F3B
:1072B000911DFC018081F1CF84B7877F84BF0FB619
:1072C000F894A89580916000886180936000109286
:1072D00060000FBE81E085BF82E085BF8AB1806318
:1072E0008AB98BB180638BB91BC31FD381E085BF83
:1072F00015BE0895E1DF78948091010181110AC0E3
:1073000080915C01811106C0F0DFE0915901F0919C
:107310005A0109956FD4F0CF7F928F929F92AF92CE
:10732000BF92CF92DF92EF92FF920F931F93CF9372
:10733000DF93809171019091720190936401809329
:10734000630180916501882341F08091650181503E
:1073500080936501811101C05D9A80916601882347
:1073600041F080916601815080936601811101C0D6
:107370005C9A80916C01833009F4B6C198F4813035
:1073800019F1823009F41FC1DF91CF911F910F9144
:10739000FF90EF90DF90CF90BF90AF909F908F9035
:1073A0007F900895853009F4BDC108F4B3C18630DB
:1073B00059F78091E800877F8093E8005D9A5C9A96
:1073C00082E0809300012BC05C9883E0809366018B
:1073D0008091E800877F8093E80080915C0188239A
:1073E00029F08ADE5D9A5C9A10925C0180916301BB
:1073F00090916401009729F580910001853051F446
:107400008091630190916401892B09F03FC082E073
:10741000809300018091E8008B7F8093E800DF91EA
:10742000CF911F910F91FF90EF90DF90CF90BF9081
:10743000AF909F908F907F90C7C12EB3222309F405
:10744000A3CF2091E80022FFF8CF2091F1002093F4
:107450005D0101979093640180936301EEE5F1E093
:107460008091F200882381F08091F10081938091D6
:10747000630190916401019790936401809363018B
:1074800021E0E336F20761F737DEB6CF8AE10EDEA0
:10749000809156018F710ADE20915601309157017B
:1074A000C0915401D09155012196C21BD30B8091FC
:1074B0005E01811178C0D695C795C9012091580108
:1074C000A22FB0E04C0120E011E005E033E0732E84
:1074D000AE0141505109CD2B79F480915401909126
:1074E0005501909357018093560181E18093570095
:1074F000E89580E1DBDD8ECF3091F200332361F13E
:10750000E091F1003091F1006E2F732FFC010B011F
:1075100010935700E89511242F5F6C017D01F2E074
:10752000CF0ED11CE11CF11CD701C601203409F596
:10753000F40100935700E89507B600FCFDCF411514
:107540005105D1F0F60170925700E89507B600FC9E
:10755000FDCF20E0460110C03091E8003B7F309322
:10756000E8003091E80032FDCBCF3EB33111F9CFC6
:107570000BCF41155105E1F2EA01AACF8091F2004B
:107580008823A1F021976091F1008091560190919C
:10759000570146D3809156019091570101969093DF
:1075A000570180935601209749F7A3CF8091E800B7
:1075B0008B7F8093E8008091E80082FDE3CF8EB35B
:1075C0008111F9CFE1CE8091E800877F8093E800B8
:1075D0005D9883E0809365018091E80080FF16C08C
:1075E000809100018930C9F08A30A1F480915E0158
:1075F000813081F490915601809157019093F10070
:107600008093F1008091E8008E7F07CF8EB38111C7
:10761000E3CFBACE80916801F3CF2091560130912B
:107620005701C0915401D09155012196C21BD30B33
:1076300080915E01811131C0D695C795C901209115
:107640005801A22FB0E0219760F4809154019091ED
:107650005501909357018093560182E08093000179
:10766000D1CF2091F200203259F0FC0125913491C4
:107670002093F1003093F1000296A11DB11DE3CFDC
:107680002091E8002E7F2093E8002091E80020FD63
:10769000ECCF2EB32111F9CF77CE8230F1F62097BF
:1076A000E1F28091F200803291F080915601909148
:1076B0005701AED28093F10080915601909157010D
:1076C000019690935701809356012197E8CF8091BE
:1076D000E8008E7F8093E8008091E80080FDE5CF90
:1076E0008EB38111F9CF50CE8091E800877F8093CF
:1076F000E80080915B018093F1001092F1001092FC
:10770000F1001092F100809100018093F10010923D
:10771000F10078CF8091E800877F8093E800109295
:107720005B017DCE8091E800877F8093E8008091A7
:10773000000166CF292F30E02230310571F023306F
:10774000310581F021303105D9F482E190E02BE35D
:1077500031E0FA013183208308958BE190E020E24B
:1077600031E0F7CF811106C080911C0190E02CE13F
:1077700031E0EFCF8091020190E022E031E0E9CFEB
:1077800090E080E030E020E0E4CFEBEEF0E08081BC
:1077900081608083EDEEF0E010826093EC00408326
:1077A0008091EE00881F8827881F08951092F400AA
:1077B0001092F0001092E8001092ED00EBEEF0E075
:1077C00080818E7F8083089580916B0187FF11C037
:1077D0008091E80082FF06C08091E8008B7F809353
:1077E000E80003C08EB38111F3CF08958EB38823D0
:1077F000E1F38091E80080FFF9CF8091E8008E7F6F
:10780000EECF209171013091720126173707A0F059
:107810006115710529F42091E8002E7F2093E8007E
:1078200030E06115710551F4311108C08091E80014
:1078300082FF30C080E00895B901F2CF2091E800C6
:1078400023FD30C02091E80022FDF0CF2EB322238B
:1078500059F12EB3253021F12091E80020FFE1CF2E
:107860002091F200FC01CF016115710511F0203269
:1078700050F031E0203209F030E02091E8002E7F16
:107880002093E800CECF81918093F100615071097F
:107890002F5FE9CF8EB3882339F08EB3853031F670
:1078A00083E0089581E0089582E0089554D056D091
:1078B0001EBA1092690184E089BD89B5826089BDD4
:1078C00009B400FEFDCF8091D800982F9F77909348
:1078D000D80080688093D800809163008E7F809369
:1078E00063008091D8008F7D8093D8008091E00064
:1078F0008E7F8093E0008091E1008E7F8093E10095
:107900008091E20081608093E2008091E100877FB6
:107910008093E1008091E20088608093E200089506
:10792000C5DF81E080936A010895C0DFE0EEF0E0FA
:10793000808181608083E8EDF0E080818F778083B3
:107940000AD00CD019BCE3E6F0E08081816080832E
:1079500010926A0108951092E20008951092E100D9
:1079600008951F920F920FB60F9211242F933F93F9
:107970004F935F936F937F938F939F93AF93BF9337
:10798000EF93FF938091E10080FF1BC08091E200A4
:1079900080FF17C08091E1008E7F8093E10080918D
:1079A000E2008E7F8093E2008091E200806180930C
:1079B000E2008091D80080628093D80019BC1EBA82
:1079C00018D18091E10084FF27C08091E20084FFFC
:1079D00023C084E089BD89B5826089BD09B400FEF9
:1079E000FDCF8091D8008F7D8093D8008091E100F9
:1079F0008F7E8093E1008091E2008F7E8093E20091
:107A00008091E20081608093E200809169018111A0
:107A100048C081E08EBBEDD08091E10083FF22C0A1
:107A20008091E20083FF1EC08091E100877F8093F8
:107A3000E10082E08EBB109269018091E1008E7FAF
:107A40008093E1008091E2008E7F8093E20080913C
:107A5000E20080618093E200A9DE42E260E080E023
:107A600094DEC7D08091E10082FF0AC08091E200DD
:107A700082FF06C08091E1008B7F8093E100B9D046
:107A8000FF91EF91BF91AF919F918F917F916F91F6
:107A90005F914F913F912F910F900FBE0F901F90CC
:107AA000189584E0B7CF1F93CF93DF9300D0CDB765
:107AB000DEB7EBE6F1E083E791E02091F10021935E
:107AC0008E179F07D1F780916B01E0916C01EA302E
:107AD00038F5F0E0E359F24C95C0773D8E3D903D8E
:107AE0008E3D903D923DAE3D903DCD3DE03D8D7F44
:107AF0008038B1F48091E80083FF0AC08091EB00E8
:107B000080628093EB008091E800877F8093E8009B
:107B10000F900F90DF91CF911F9108958D7F51F3BA
:107B2000FBDBE8CF8111FCCF10916D018091E80063
:107B3000877F8093E80048DE8091E80080FF0AC0DC
:107B4000812F8F7792E009F093E09EBB806880934D
:107B5000E300D0CF8EB38111EFCFCCCF80588230ED
:107B6000F8F6AE014F5F5F4F60916F0180916D013C
:107B700090916E01DFDDBC01892B09F4BBCF9091A0
:107B8000E800977F9093E80089819A813ADE80919E
:107B9000E8008B7F8093E800ADCF803809F0C0CF3C
:107BA0008091E800877F8093E8008091690180934D
:107BB000F1008091E8008E7F8093E80005DE9ACF87
:107BC0008111AECF90916D01923008F093CF8091EA
:107BD000E800877F8093E80090936901F5DD80914C
:107BE0006901811104C083E08EBB03D083CF84E0A0
:107BF000FBCF08958EB3882321F08091E80083FDA8
:107C000052CF0895EE0FFF1F0590F491E02D0994D7
:107C1000F999FECF92BD81BDF89A992780B5089554
:107C2000262FF999FECF1FBA92BD81BD20BD0FB698
:107C3000F894FA9AF99A0FBE01960895F894FFCF36
:107C4000020118034D0065006700610043004D000C
:107C500044002000440046005500000004030904CD
:107C600009021B0001010080320904000000FE012E
:107C700002000921030000000C00011201100100A4
:107C80000000200912703000000001000120DCFB20
:047C90001E958A00B3
:040000030000700089
:00000001FF
