:101D800001C01DC111248FE594E09EBF8DBF84B7B3
:101D9000882371F0982F9A70923051F081FF02C021
:101DA00097EF94BF282E80E0F7D0EFE0FF2709944B
:101DB00085E08EBD82E08BB988E18AB986E880BD76
:101DC00080E189B98EE0E8D0BD9A86E020E33CEF5F
:101DD00044E050E23DBD2CBD48BF08B602FEFDCF39
:101DE00098B3952798BBA8955F9902C0815091F749
:101DF00093E0D92ECC24C39425E0922E31E1832E9A
:101E00004FEBE42E4EE0F42E8F2D806C782EBDD05B
:101E1000813471F4BAD0182FC3D082E0123821F087
:101E200088E0113809F083E0ACD080E1AAD0EFCF90
:101E3000823419F484E1BCD0F8CF853411F485E004
:101E4000FACF853541F4A1D0C82F9FD0D82FCC0F21
:101E5000DD1FA6D0EACF863521F484E0A9D080E04A
:101E6000E3CF843609F055C090D08FD0682E8DD046
:101E7000582E462C00E610E05801EFEFAE1ABE0ACD
:101E800084D0F80180834A9485014110F5CF88D031
:101E90002097F1F4309160003093E40020916100CC
:101EA0002093E500E09260007092610040917E0016
:101EB0004093E60040917F004093E700832F922FEC
:101EC0000F9780937E00892F8F70806C80937F00A6
:101ED000F5E45F1201C0FFCFFE01D7BEE89507B65B
:101EE00000FCFDCFFE01A0E6B0E08D919D910C01BC
:101EF000C7BEE895112432966A946A946110F5CFB2
:101F0000FE0197BEE89507B600FCFDCF87BEE895B9
:101F10008CCF843739F539D038D0B82E36D040D070
:101F20008E010115110549F48091E4002AD0BA947C
:101F30000F5F1F4FB110F5CF78CF0130110519F4A5
:101F40008091E500F3CF0E31110519F48091E60080
:101F5000EDCF0F31110519F48091E700E7CFF801BB
:101F60008491E4CF853739F41BD08EE10AD083E920
:101F700008D087E059CF813509F06BCF88E00CD0CD
:101F800068CF5D9BFECF8CB908955F9BFECF5C99B7
:101F900001C0A8958CB1089598E191BD81BD0895C7
:101FA000F4DF803219F088E0F7DFFFCF84E1E9CF7A
:101FB000CF93C82FEADFC150E9F7CF91F1CFFC01F1
:101FC0000A0167BFE895112407B600FCFDCF6670D3
:0E1FD00029F0452B19F481E187BFE8950895AB
:021FFE000208D7
:0400000300001D805C
:00000001FF
